{
  "contractName": "SimpleMultiSig",
  "abi": [
    {
      "constant": true,
      "inputs": [
        {
          "name": "",
          "type": "bytes32"
        }
      ],
      "name": "wallets",
      "outputs": [
        {
          "name": "nonce",
          "type": "uint256"
        },
        {
          "name": "owner",
          "type": "address"
        },
        {
          "name": "value",
          "type": "uint256"
        },
        {
          "name": "DOMAIN_SEPARATOR",
          "type": "bytes32"
        },
        {
          "name": "erc20Addr",
          "type": "address"
        }
      ],
      "payable": false,
      "stateMutability": "view",
      "type": "function"
    },
    {
      "constant": true,
      "inputs": [],
      "name": "chainId",
      "outputs": [
        {
          "name": "",
          "type": "uint256"
        }
      ],
      "payable": false,
      "stateMutability": "view",
      "type": "function"
    },
    {
      "constant": true,
      "inputs": [],
      "name": "master",
      "outputs": [
        {
          "name": "",
          "type": "address"
        }
      ],
      "payable": false,
      "stateMutability": "view",
      "type": "function"
    },
    {
      "inputs": [
        {
          "name": "chainId_",
          "type": "uint256"
        }
      ],
      "payable": false,
      "stateMutability": "nonpayable",
      "type": "constructor"
    },
    {
      "payable": false,
      "stateMutability": "nonpayable",
      "type": "fallback"
    },
    {
      "constant": false,
      "inputs": [
        {
          "name": "master_",
          "type": "address"
        }
      ],
      "name": "setMaster",
      "outputs": [],
      "payable": false,
      "stateMutability": "nonpayable",
      "type": "function"
    },
    {
      "constant": true,
      "inputs": [
        {
          "name": "id",
          "type": "bytes32"
        }
      ],
      "name": "getWallet",
      "outputs": [
        {
          "name": "",
          "type": "uint256"
        },
        {
          "name": "",
          "type": "address"
        },
        {
          "name": "",
          "type": "uint256"
        },
        {
          "name": "",
          "type": "bytes32"
        },
        {
          "name": "",
          "type": "address"
        }
      ],
      "payable": false,
      "stateMutability": "view",
      "type": "function"
    },
    {
      "constant": false,
      "inputs": [
        {
          "name": "id",
          "type": "bytes32"
        },
        {
          "name": "owner",
          "type": "address"
        }
      ],
      "name": "createEthWallet",
      "outputs": [],
      "payable": true,
      "stateMutability": "payable",
      "type": "function"
    },
    {
      "constant": false,
      "inputs": [
        {
          "name": "id",
          "type": "bytes32"
        },
        {
          "name": "owner",
          "type": "address"
        },
        {
          "name": "erc20Addr",
          "type": "address"
        },
        {
          "name": "value",
          "type": "uint256"
        }
      ],
      "name": "createErc20Wallet",
      "outputs": [],
      "payable": false,
      "stateMutability": "nonpayable",
      "type": "function"
    },
    {
      "constant": true,
      "inputs": [
        {
          "name": "id",
          "type": "bytes32"
        },
        {
          "name": "recipient",
          "type": "address"
        }
      ],
      "name": "getSig",
      "outputs": [
        {
          "name": "",
          "type": "bytes32"
        }
      ],
      "payable": false,
      "stateMutability": "view",
      "type": "function"
    },
    {
      "constant": false,
      "inputs": [
        {
          "name": "id",
          "type": "bytes32"
        },
        {
          "name": "sigV",
          "type": "uint8[]"
        },
        {
          "name": "sigR",
          "type": "bytes32[]"
        },
        {
          "name": "sigS",
          "type": "bytes32[]"
        },
        {
          "name": "recipient",
          "type": "address"
        }
      ],
      "name": "transfer",
      "outputs": [],
      "payable": false,
      "stateMutability": "nonpayable",
      "type": "function"
    }
  ],
  "bytecode": "0x608060405234801561001057600080fd5b506040516020806117a28339810180604052602081101561003057600080fd5b81019080805190602001909291905050508060008190555033600160006101000a81548173ffffffffffffffffffffffffffffffffffffffff021916908373ffffffffffffffffffffffffffffffffffffffff16021790555050611709806100996000396000f3fe6080604052600436106100865760003560e01c80639a8a0592116100595780639a8a0592146104835780639de45c94146104ae578063c04d2bdd1461051d578063ee97f7f3146105a2578063feba5eb0146105f957610086565b806313feefc21461009557806326fae0d314610158578063627d414f146101a9578063789d392a146103c0575b34801561009257600080fd5b50005b3480156100a157600080fd5b506100ce600480360360208110156100b857600080fd5b8101908080359060200190929190505050610647565b604051808681526020018573ffffffffffffffffffffffffffffffffffffffff1673ffffffffffffffffffffffffffffffffffffffff1681526020018481526020018381526020018273ffffffffffffffffffffffffffffffffffffffff1673ffffffffffffffffffffffffffffffffffffffff1681526020019550505050505060405180910390f35b34801561016457600080fd5b506101a76004803603602081101561017b57600080fd5b81019080803573ffffffffffffffffffffffffffffffffffffffff1690602001909291905050506106bd565b005b3480156101b557600080fd5b506103be600480360360a08110156101cc57600080fd5b8101908080359060200190929190803590602001906401000000008111156101f357600080fd5b82018360208201111561020557600080fd5b8035906020019184602083028401116401000000008311171561022757600080fd5b919080806020026020016040519081016040528093929190818152602001838360200280828437600081840152601f19601f8201169050808301925050505050505091929192908035906020019064010000000081111561028757600080fd5b82018360208201111561029957600080fd5b803590602001918460208302840111640100000000831117156102bb57600080fd5b919080806020026020016040519081016040528093929190818152602001838360200280828437600081840152601f19601f8201169050808301925050505050505091929192908035906020019064010000000081111561031b57600080fd5b82018360208201111561032d57600080fd5b8035906020019184602083028401116401000000008311171561034f57600080fd5b919080806020026020016040519081016040528093929190818152602001838360200280828437600081840152601f19601f820116905080830192505050505050509192919290803573ffffffffffffffffffffffffffffffffffffffff1690602001909291905050506107a7565b005b3480156103cc57600080fd5b506103f9600480360360208110156103e357600080fd5b8101908080359060200190929190505050610ab8565b604051808681526020018573ffffffffffffffffffffffffffffffffffffffff1673ffffffffffffffffffffffffffffffffffffffff1681526020018481526020018381526020018273ffffffffffffffffffffffffffffffffffffffff1673ffffffffffffffffffffffffffffffffffffffff1681526020019550505050505060405180910390f35b34801561048f57600080fd5b50610498610b43565b6040518082815260200191505060405180910390f35b3480156104ba57600080fd5b50610507600480360360408110156104d157600080fd5b8101908080359060200190929190803573ffffffffffffffffffffffffffffffffffffffff169060200190929190505050610b49565b6040518082815260200191505060405180910390f35b34801561052957600080fd5b506105a06004803603608081101561054057600080fd5b8101908080359060200190929190803573ffffffffffffffffffffffffffffffffffffffff169060200190929190803573ffffffffffffffffffffffffffffffffffffffff16906020019092919080359060200190929190505050610bd7565b005b3480156105ae57600080fd5b506105b7610dc8565b604051808273ffffffffffffffffffffffffffffffffffffffff1673ffffffffffffffffffffffffffffffffffffffff16815260200191505060405180910390f35b6106456004803603604081101561060f57600080fd5b8101908080359060200190929190803573ffffffffffffffffffffffffffffffffffffffff169060200190929190505050610dee565b005b60026020528060005260406000206000915090508060000154908060010160009054906101000a900473ffffffffffffffffffffffffffffffffffffffff16908060020154908060030154908060040160009054906101000a900473ffffffffffffffffffffffffffffffffffffffff16905085565b600160009054906101000a900473ffffffffffffffffffffffffffffffffffffffff1673ffffffffffffffffffffffffffffffffffffffff163373ffffffffffffffffffffffffffffffffffffffff1614610763576040517f08c379a00000000000000000000000000000000000000000000000000000000081526004018080602001828103825260228152602001806116bc6022913960400191505060405180910390fd5b80600160006101000a81548173ffffffffffffffffffffffffffffffffffffffff021916908373ffffffffffffffffffffffffffffffffffffffff16021790555050565b3373ffffffffffffffffffffffffffffffffffffffff16600160009054906101000a900473ffffffffffffffffffffffffffffffffffffffff1673ffffffffffffffffffffffffffffffffffffffff161461086a576040517f08c379a00000000000000000000000000000000000000000000000000000000081526004018080602001828103825260128152602001807f496e636f7272656374206578656375746f72000000000000000000000000000081525060200191505060405180910390fd5b6108778585858585610e20565b600060026000878152602001908152602001600020905060018160000160008282540192505081905550600073ffffffffffffffffffffffffffffffffffffffff168160040160009054906101000a900473ffffffffffffffffffffffffffffffffffffffff1673ffffffffffffffffffffffffffffffffffffffff1614610a5a578060040160009054906101000a900473ffffffffffffffffffffffffffffffffffffffff1673ffffffffffffffffffffffffffffffffffffffff1663a9059cbb8383600201546040518363ffffffff1660e01b8152600401808373ffffffffffffffffffffffffffffffffffffffff1673ffffffffffffffffffffffffffffffffffffffff16815260200182815260200192505050602060405180830381600087803b1580156109a857600080fd5b505af11580156109bc573d6000803e3d6000fd5b505050506040513d60208110156109d257600080fd5b8101908080519060200190929190505050610a55576040517f08c379a000000000000000000000000000000000000000000000000000000000815260040180806020018281038252601b8152602001807f5472616e7366657220455243323020746f6b656e206661696c6564000000000081525060200191505060405180910390fd5b610aa6565b8173ffffffffffffffffffffffffffffffffffffffff166108fc82600201549081150290604051600060405180830381858888f19350505050158015610aa4573d6000803e3d6000fd5b505b60008160020181905550505050505050565b60008060008060008060026000888152602001908152602001600020905080600001548160010160009054906101000a900473ffffffffffffffffffffffffffffffffffffffff16826002015483600301548460040160009054906101000a900473ffffffffffffffffffffffffffffffffffffffff16955095509550955095505091939590929450565b60005481565b600080600260008581526020019081526020016000209050610bce83826002015483600001548460030154600073ffffffffffffffffffffffffffffffffffffffff168660040160009054906101000a900473ffffffffffffffffffffffffffffffffffffffff1673ffffffffffffffffffffffffffffffffffffffff161415611278565b91505092915050565b610be184846114a8565b8173ffffffffffffffffffffffffffffffffffffffff166323b872dd3330846040518463ffffffff1660e01b8152600401808473ffffffffffffffffffffffffffffffffffffffff1673ffffffffffffffffffffffffffffffffffffffff1681526020018373ffffffffffffffffffffffffffffffffffffffff1673ffffffffffffffffffffffffffffffffffffffff1681526020018281526020019350505050602060405180830381600087803b158015610c9c57600080fd5b505af1158015610cb0573d6000803e3d6000fd5b505050506040513d6020811015610cc657600080fd5b8101908080519060200190929190505050610d49576040517f08c379a000000000000000000000000000000000000000000000000000000000815260040180806020018281038252601b8152602001807f5472616e7366657220455243323020746f6b656e206661696c6564000000000081525060200191505060405180910390fd5b806002600086815260200190815260200160002060020160008282540192505081905550816002600086815260200190815260200160002060040160006101000a81548173ffffffffffffffffffffffffffffffffffffffff021916908373ffffffffffffffffffffffffffffffffffffffff16021790555050505050565b600160009054906101000a900473ffffffffffffffffffffffffffffffffffffffff1681565b610df882826114a8565b3460026000848152602001908152602001600020600201600082825401925050819055505050565b6002835114610e97576040517f08c379a00000000000000000000000000000000000000000000000000000000081526004018080602001828103825260148152602001807f496e636f727265637420736967206c656e67746800000000000000000000000081525060200191505060405180910390fd5b81518351148015610ea9575083518351145b610f1b576040517f08c379a00000000000000000000000000000000000000000000000000000000081526004018080602001828103825260198152602001807f536967206c656e67746820646f6573206e6f74206d617463680000000000000081525060200191505060405180910390fd5b60006002600087815260200190815260200160002090506000610fa183836002015484600001548560030154600073ffffffffffffffffffffffffffffffffffffffff168760040160009054906101000a900473ffffffffffffffffffffffffffffffffffffffff1673ffffffffffffffffffffffffffffffffffffffff161415611278565b9050600160009054906101000a900473ffffffffffffffffffffffffffffffffffffffff1673ffffffffffffffffffffffffffffffffffffffff1660018288600081518110610fec57fe5b60200260200101518860008151811061100157fe5b60200260200101518860008151811061101657fe5b602002602001015160405160008152602001604052604051808581526020018460ff1660ff1681526020018381526020018281526020019450505050506020604051602081039080840390855afa158015611075573d6000803e3d6000fd5b5050506020604051035173ffffffffffffffffffffffffffffffffffffffff1614611108576040517f08c379a00000000000000000000000000000000000000000000000000000000081526004018080602001828103825260128152602001807f496e76616c6964206d617374657220736967000000000000000000000000000081525060200191505060405180910390fd5b8160010160009054906101000a900473ffffffffffffffffffffffffffffffffffffffff1673ffffffffffffffffffffffffffffffffffffffff166001828860018151811061115357fe5b60200260200101518860018151811061116857fe5b60200260200101518860018151811061117d57fe5b602002602001015160405160008152602001604052604051808581526020018460ff1660ff1681526020018381526020018281526020019450505050506020604051602081039080840390855afa1580156111dc573d6000803e3d6000fd5b5050506020604051035173ffffffffffffffffffffffffffffffffffffffff161461126f576040517f08c379a00000000000000000000000000000000000000000000000000000000081526004018080602001828103825260118152602001807f496e76616c6964206f776e65722073696700000000000000000000000000000081525060200191505060405180910390fd5b50505050505050565b600060608215611347578686604051602401808373ffffffffffffffffffffffffffffffffffffffff1673ffffffffffffffffffffffffffffffffffffffff168152602001828152602001925050506040516020818303038152906040527fa9059cbb000000000000000000000000000000000000000000000000000000007bffffffffffffffffffffffffffffffffffffffffffffffffffffffff19166020820180517bffffffffffffffffffffffffffffffffffffffffffffffffffffffff838183161783525050505090505b60007f3ee892349ae4bbe61dce18f95115b5dc02daf49204cc602458cd4c1f540d56d760001b8888848051906020012089600160009054906101000a900473ffffffffffffffffffffffffffffffffffffffff16604051602001808781526020018673ffffffffffffffffffffffffffffffffffffffff1673ffffffffffffffffffffffffffffffffffffffff1681526020018581526020018481526020018381526020018273ffffffffffffffffffffffffffffffffffffffff1673ffffffffffffffffffffffffffffffffffffffff16815260200196505050505050506040516020818303038152906040528051906020012090506000858260405160200180807f19010000000000000000000000000000000000000000000000000000000000008152506002018381526020018281526020019250505060405160208183030381529060405280519060200120905080935050505095945050505050565b6000600260008481526020019081526020016000209050600073ffffffffffffffffffffffffffffffffffffffff168160010160009054906101000a900473ffffffffffffffffffffffffffffffffffffffff1673ffffffffffffffffffffffffffffffffffffffff1614611585576040517f08c379a00000000000000000000000000000000000000000000000000000000081526004018080602001828103825260158152602001807f57616c6c657420616c726561647920657869737473000000000000000000000081525060200191505060405180910390fd5b818160010160006101000a81548173ffffffffffffffffffffffffffffffffffffffff021916908373ffffffffffffffffffffffffffffffffffffffff1602179055507fd87cd6ef79d4e2b95e15ce8abf732db51ec771f1ca2edccf22a46c729ac5647260001b7fb7a0bfa1b79f2443f4d73ebb9259cddbcd510b18be6fc4da7d1aa7b1786e73e660001b7fc89efdaa54c0f20c7adf612882df0950f5a951637e0307cdcb4c672f298b8bc660001b6000543087604051602001808781526020018681526020018581526020018481526020018373ffffffffffffffffffffffffffffffffffffffff1673ffffffffffffffffffffffffffffffffffffffff168152602001828152602001965050505050505060405160208183030381529060405280519060200120816003018190555050505056fe4f6e6c79206d61737465722063616e20736574206d61737465722061646472657373a165627a7a72305820618ffa922ae7752e18259220ed7c4ca325246f6b354451b9314bc01474bf454f0029",
  "source": "pragma solidity ^0.5.8;\n\nimport \"@openzeppelin/contracts/token/ERC20/IERC20.sol\";\n\ncontract SimpleMultiSig {\n    // EIP712 Precomputed hashes:\n    // keccak256(\"EIP712Domain(string name,string version,uint256 chainId,address verifyingContract,bytes32 salt)\")\n    bytes32 constant EIP712DOMAINTYPE_HASH = 0xd87cd6ef79d4e2b95e15ce8abf732db51ec771f1ca2edccf22a46c729ac56472;\n\n    // keccak256(\"Simple MultiSig\")\n    bytes32 constant NAME_HASH = 0xb7a0bfa1b79f2443f4d73ebb9259cddbcd510b18be6fc4da7d1aa7b1786e73e6;\n\n    // keccak256(\"1\")\n    bytes32 constant VERSION_HASH = 0xc89efdaa54c0f20c7adf612882df0950f5a951637e0307cdcb4c672f298b8bc6;\n\n    // keccak256(\"MultiSigTransaction(address destination,uint256 value,bytes data,uint256 nonce,address executor,uint256 gasLimit)\")\n    bytes32 constant TXTYPE_HASH = 0x3ee892349ae4bbe61dce18f95115b5dc02daf49204cc602458cd4c1f540d56d7;\n\n    bytes32 constant SALT = 0x251543af6a222378665a76fe38dbceae4871a070b7fdaf5c6c30cf758dc33cc0;\n\n    uint256 constant THRESHOLD = 2;\n\n    uint256 public chainId;\n    address public master;\n\n    struct Wallet {\n        uint256 nonce; // mutable state\n        address owner;\n        uint256 value; // mutable state\n        bytes32 DOMAIN_SEPARATOR;\n        address erc20Addr;\n    }\n\n    mapping(bytes32 => Wallet) public wallets;\n\n    constructor(uint256 chainId_) public {\n        chainId = chainId_;\n        master = msg.sender;\n    }\n\n    function setMaster(address master_) external {\n        require(msg.sender == master, \"Only master can set master address\");\n        master = master_;\n    }\n\n    // Note that owners_ must be strictly increasing, in order to prevent duplicates\n    function createWallet(bytes32 id, address owner) internal {\n        Wallet storage wallet = wallets[id];\n        require(wallet.owner == address(0), \"Wallet already exists\");\n        wallet.owner = owner;\n\n        wallet.DOMAIN_SEPARATOR = keccak256(\n            abi.encode(\n                EIP712DOMAINTYPE_HASH,\n                NAME_HASH,\n                VERSION_HASH,\n                chainId,\n                this,\n                id\n            )\n        );\n    }\n\n    function getWallet(bytes32 id)\n        external\n        view\n        returns (uint256, address, uint256, bytes32, address)\n    {\n        Wallet storage wallet = wallets[id];\n        return (\n            wallet.nonce,\n            wallet.owner,\n            wallet.value,\n            wallet.DOMAIN_SEPARATOR,\n            wallet.erc20Addr\n        );\n    }\n\n    function createEthWallet(bytes32 id, address owner) external payable {\n        createWallet(id, owner);\n        wallets[id].value += msg.value;\n    }\n\n    function createErc20Wallet(\n        bytes32 id,\n        address owner,\n        address erc20Addr,\n        uint256 value\n    ) external {\n        createWallet(id, owner);\n        require(\n            IERC20(erc20Addr).transferFrom(msg.sender, address(this), value),\n            \"Transfer ERC20 token failed\"\n        );\n        wallets[id].value += value;\n        wallets[id].erc20Addr = erc20Addr;\n    }\n\n    function getTotalInputHash(\n        address recipient,\n        uint256 value,\n        uint256 nonce,\n        bytes32 DOMAIN_SEPARATOR,\n        bool isErc20\n    ) internal view returns (bytes32) {\n\n        bytes memory data;\n\n        if (isErc20) {\n            // get calldata\n            data = abi.encodeWithSignature(\n                \"transfer(address,uint256)\",\n                recipient,\n                value\n            );\n        }\n\n        // EIP712 scheme: https://github.com/ethereum/EIPs/blob/master/EIPS/eip-712.md\n        bytes32 txInputHash = keccak256(\n            abi.encode(\n                TXTYPE_HASH,\n                recipient,\n                value,\n                keccak256(data),\n                nonce,\n                master\n            )\n        );\n\n        bytes32 totalHash = keccak256(\n            abi.encodePacked(\"\\x19\\x01\", DOMAIN_SEPARATOR, txInputHash)\n        );\n\n        return totalHash;\n    }\n\n    // return signature to be signed\n    function getSig(bytes32 id, address recipient)\n        public\n        view\n        returns (bytes32)\n    {\n        Wallet storage wallet = wallets[id];\n\n        return\n            getTotalInputHash(\n                recipient,\n                wallet.value,\n                wallet.nonce,\n                wallet.DOMAIN_SEPARATOR,\n                wallet.erc20Addr != address(0x0)\n            );\n    }\n\n    function verifySigs(\n        bytes32 id,\n        uint8[] memory sigV,\n        bytes32[] memory sigR,\n        bytes32[] memory sigS,\n        address recipient\n    ) internal view {\n        require(sigR.length == THRESHOLD, \"Incorrect sig length\");\n        require(\n            sigR.length == sigS.length && sigR.length == sigV.length,\n            \"Sig length does not match\"\n        );\n\n        Wallet storage wallet = wallets[id];\n\n        // compute total input hash\n        bytes32 totalHash = getTotalInputHash(\n            recipient,\n            wallet.value,\n            wallet.nonce,\n            wallet.DOMAIN_SEPARATOR,\n            wallet.erc20Addr != address(0x0)\n        );\n\n        // master signed\n        require(\n            ecrecover(totalHash, sigV[0], sigR[0], sigS[0]) == master,\n            \"Invalid master sig\"\n        );\n\n        // owner signed\n        require(\n            ecrecover(totalHash, sigV[1], sigR[1], sigS[1]) == wallet.owner,\n            \"Invalid owner sig\"\n        );\n    }\n\n    function transfer(\n        bytes32 id,\n        uint8[] memory sigV,\n        bytes32[] memory sigR,\n        bytes32[] memory sigS,\n        address payable recipient\n    ) public {\n        // only master can execute\n        require(master == msg.sender, \"Incorrect executor\");\n\n        // verify signatures\n        verifySigs(id, sigV, sigR, sigS, recipient);\n\n        Wallet storage wallet = wallets[id];\n\n        wallet.nonce += 1;\n\n        if (wallet.erc20Addr != address(0x0)) {\n            // send erc20 tokens\n            require(\n                IERC20(wallet.erc20Addr).transfer(recipient, wallet.value),\n                \"Transfer ERC20 token failed\"\n            );\n        } else {\n            // send eth\n            recipient.transfer(wallet.value);\n        }\n\n        // safe to set wallet.value after transfer\n        // re-entry attack prevented by nonce\n        wallet.value = 0;\n    }\n\n    // disable payment\n    function() external {}\n}\n",
  "sourcePath": "/home/dev/projects/simple-multisig/contracts/SimpleMultiSig.sol",
  "compiler": {
    "name": "solc",
    "version": "0.5.8+commit.23d335f2.Emscripten.clang"
  },
  "schemaVersion": "3.0.16",
  "updatedAt": "2019-11-01T21:32:42.320Z",
  "devdoc": {
    "methods": {}
  },
  "userdoc": {
    "methods": {}
  }
}